:100000000C94BC000C94FE060C94D7060C94B0061D
:100010000C9489060C94E4000C94E4000C946206A1
:100020000C94E4000C94E4000C9477030C94E60325
:100030000C94E4000C94E4000C94E4000C94E400B0
:100040000C94E4000C94E4000C94E4000C94E400A0
:100050000C94E4000C9425070C94E4000C9418060E
:100060000C94E4000C94E4000C94E4000C94E40080
:100070000C94E4000C94E4000C94E4000C94E40070
:100080000C94E4000C94E4000C94E4000C94E40060
:100090000C94E4000C94E4000C94E4000C94E40050
:1000A0000C94E4000C94E4000C94E40000000000C4
:1000B000250028002B002E00310000000000240045
:1000C00027002A002D003000040404040403040562
:1000D00002020202040302020202060606060606E5
:1000E00004040202020404040802011040804010CB
:1000F000204080408008020401804020100201104E
:10010000801020404020080B000202020000090479
:100110000000010202000005240010010524010175
:1001200001042402060524060001070581031000CE
:100130004009040100020A00000007050202400015
:1001400000070583024000000403090412010002B5
:10015000EF0201404123418000010102030141728D
:100160006475696E6F204C4C430041726475696E12
:100170006F2059756E005B0711241FBECFEFDAE0C8
:10018000DEBFCDBF11E0A0E0B1E0E2EEF0E102C0E1
:1001900005900D92A033B107D9F721E0A0E3B1E0BB
:1001A00001C01D92A43AB207E1F710E0CCEBD0E019
:1001B00004C02197FE010E946908CB3BD107C9F713
:1001C0000E9470070C946F080C940000FC01809151
:1001D000A301882311F13FB7F89482E08093E900EE
:1001E0002091F200822F90E01816190614F481E095
:1001F00090E0882339F0289844E64093A20140918A
:10020000F1004083222339F02091F200211103C034
:100210002BE62093E8003FBF08958FEF9FEF0895EE
:100220002FB7F89483E08093E9009091E800892F3C
:10023000807295FF04C09091F20080E4891B2FBF6B
:10024000089580919A0181110DC082E080939601FA
:1002500084E080939701109299011092980181E0B7
:1002600080939A0186E991E00895CF93DF931F92DE
:10027000CDB7DEB76983DC01ED91FC910280F3819B
:10028000E02D41E050E0BE016F5F7F4F09950F9078
:10029000DF91CF91089583E08093E9008091F2008F
:1002A000882319F08AE38093E80008950E941001E2
:1002B00090E00895CF93DF931F92CDB7DEB7FC0196
:1002C0008485958597FD08C02FEF3FEF35872487FC
:1002D0000F90DF91CF910895CE0101960E94E60024
:1002E000019719F4898190E0F3CF8FEF9FEFF0CF62
:1002F0000F931F93CF93DF931F92CDB7DEB78C017F
:10030000FC018485958597FF0BC0CE0101960E9464
:10031000E600019771F4898190E0F8019587848760
:10032000F801848595850F90DF91CF911F910F91F2
:1003300008958FEF9FEFF1CFFC018485958597FDA0
:100340000BC09FB7F89482E08093E9008091F2009F
:100350009FBF90E0019608959FB7F89482E0809344
:10036000E9008091F2009FBF90E008954091400124
:100370005091410120913E0130913F0142175307B6
:10038000B4F49091E8009570E1F39091E80092FD4B
:1003900019C08093F1008091400190914101019634
:1003A0008F739927892B19F48EEF8093E800809141
:1003B0004001909141010196909341018093400149
:1003C00081E0089580E00895EF92FF920F931F93CC
:1003D000CF93DF93F82E192FE62E042F81E0860F9E
:1003E000880F0E94B60183E00E94B601CF2DD12F65
:1003F000EC0EFD2EF11CCE15DF05B9F007FF13C082
:10040000FE0184910E94B601182F80E00E94B6017F
:10041000812321968111EFCFDF91CF911F910F9111
:10042000FF90EF9008958881EDCF81E0F5CFDF92C6
:10043000EF92FF920F931F93CF93DF93D82E8A01F1
:10044000EB017B01E40EF51ECE15DF0559F0D7FE5A
:1004500012C0FE0184910E94B60121968111F4CF51
:100460000FEF1FEFC801DF91CF911F910F91FF9008
:10047000EF90DF9008958881EECF0F931F93CF9375
:10048000DF931F92CDB7DEB782E0898342E450E06C
:1004900066E071E080E80E9417020E942101DC0101
:1004A00012960D911C910115110589F0D801ED915D
:1004B000FC910280F381E02DBE016F5F7F4FC80188
:1004C000099597FD04C0F80100851185ECCF89815D
:1004D0000F90DF91CF911F910F910895615030F0EF
:1004E0002091F100FC0120830196F8CF289884E642
:1004F0008093A2010895CF93DF9390E0FC01E9512E
:10050000FF4F249188539F4FFC0184918823D1F0A1
:1005100090E0880F991FFC01E654FF4FA591B4911C
:10052000FC01E455FF4FC591D49161110EC09FB7F6
:10053000F8948C91E22FE0958E238C932881E2230E
:10054000E8839FBFDF91CF9108958FB7F894EC9126
:10055000E22BEC938FBFF6CF3FB7F89480913A012E
:1005600090913B01A0913C01B0913D0126B5A89B23
:1005700005C02F3F19F00196A11DB11D3FBFBA2F35
:10058000A92F982F8827BC01CD01620F711D811DF5
:10059000911D42E0660F771F881F991F4A95D1F77A
:1005A0000895CF92DF92EF92FF920E94AC026B010E
:1005B0007C010E94AC026C197D098E099F09683E7E
:1005C000734081059105A8F3FF90EF90DF90CF90E5
:1005D00008958F929F92AF92BF92CF92DF92EF9247
:1005E000FF920F931F93CF93DF936C017B018A01DE
:1005F00080911501882309F458C08091A3018823B4
:1006000009F453C08091450180FF05C08091E0004E
:1006100082608093E000E801B12C8AEFA82E93E07D
:10062000892E2AE3922E209711F4BB20B9F10E9463
:100630001001811106C0AA94AA20B9F10E94D1022A
:10064000F2CF8C171D0611F00CF08C2F9FB7F89489
:100650008092E9002091E80025FD02C09FBFE3CF12
:10066000282F30E0C21BD30BF701815020F04191BD
:100670004093F100FACFE20EF31EBB2021F09092DE
:10068000E800B12CEBCF8091E80085FDE7CF909298
:10069000E800BB24B394209709F3F3CF5D9884E678
:1006A00080934401101611063CF081E090E0F601C1
:1006B0009383828310E000E0C801DF91CF911F9106
:1006C0000F91FF90EF90DF90CF90BF90AF909F90F1
:1006D0008F90089516BC2E9810923101109230011F
:1006E00010923401109233015F9A089508951F9279
:1006F0000F920FB60F9211248F939F938091E10078
:100700009091E100937F9093E10083FF0FC01092DE
:10071000E90091E09093EB001092EC0092E390934B
:10072000ED001092A30198E09093F00082FF22C0A8
:1007300093E09093E9009091F200992319F09AE3E5
:100740009093E80090914401992341F090914401E5
:10075000915090934401911101C05D9A9091A20132
:10076000992341F09091A20191509093A20191118F
:1007700001C0289A84FF18C08091E2008E7E8160BB
:100780008093E2008091E1008F7E8093E100809170
:1007900045018E7E8061809345019F918F910F90DE
:1007A0000FBE0F901F90189580FFF7CF8091E20049
:1007B0008E7E80618093E2008091E1008E7E809346
:1007C000E100809145018E7E8160E5CF1F920F92FE
:1007D0000FB60F921124CF92DF92EF92FF920F93F8
:1007E0001F932F933F934F935F936F937F938F93B9
:1007F0009F93AF93BF93EF93FF93CF93DF93CDB7C7
:10080000DEB76C97DEBFCDBF1092E9008091E800A3
:1008100083FF25C068E0CE0145960E946E0282EFFC
:100820008093E8008D8987FF39C09091E80090FFA0
:10083000FCCF982F907609F034C19E894F89588D4E
:100840002F89F88C911131C0803861F58091430176
:100850008093F1001092F1008EEF8093E8006C9687
:100860000FB6F894DEBF0FBECDBFDF91CF91FF91E1
:10087000EF91BF91AF919F918F917F916F915F9118
:100880004F913F912F911F910F91FF90EF90DF902B
:10089000CF900F900FBE0F901F9018959EEF9093E2
:1008A000E800C7CF1092F100D5CF913059F48111F3
:1008B000D3CF4130510581F6809143018D7F8093E4
:1008C0004301CACF933049F48111C6CF413051055D
:1008D00019F6809143018260F2CF953041F4809106
:1008E000E80080FFFCCF20682093E300B5CF96306E
:1008F00009F0A9C00B8D1C8D22E01092E900109226
:10090000410110924001F2122EC010923F0110924C
:100910003E010E943D021F8299E09983FA8291E094
:100920009E8390EA98879AEF9987209140013091B1
:100930004101275F3F4F3C832B838D831092E90059
:10094000109241011092400110933F0100933E012B
:1009500049E050E0BE016F5F7F4F80E00E941702C8
:100960000E943D0279CF10933F0100933E010E9407
:100970002101DC0112960D911C910115110509F45C
:1009800051C1D801ED91FC910480F581E02DBE01AB
:100990006B5E7F4FC8010995009709F03EC1F801D1
:1009A00000851185EACFF3E0FF120EC08F898823FE
:1009B00009F440C0823061F440E86BE08AE691E0DF
:1009C0000E94E401811148CF81E28093EB0047CF80
:1009D000813029F440E86BE08EE591E0F1CF83307F
:1009E00099F70E942101DC011296ED90FC908E0196
:1009F0000F5F1F4F6801E114F10479F0D701ED9109
:100A0000FC910680F781E02DB801C7010995080F18
:100A1000111DF701E084F184EECFD8011C92F6019C
:100A200001900020E9F73197BF016C197D0940E082
:100A3000C601C6CF68E471E0FB01449150E080E854
:100A40000E94170209CF973009F4BECF983021F4E5
:100A500081E08093F10000CF993009F0FDCE8370E2
:100A600009F0B2CFE7E1F1E081E031E096E32191D6
:100A7000222371F08093E9003093EB00DF0111979E
:100A80002C912093EC009093ED008F5F873079F7E5
:100A90008EE78093EA001092EA008F898093A30189
:100AA000DBCE8B8D9C8D1092E9001092410110924B
:100AB000400190933F0180933E01898D811192C046
:100AC0008E899D89913A49F4813209F07DCF47E0C2
:100AD00050E06EE071E080E0B3CF913209F074CF66
:100AE000833269F48F89988DB0E0A0E080930A0189
:100AF00090930B01A0930C01B0930D01ADCE803209
:100B000069F48091E80082FFFCCF67E08EE091E01D
:100B10000E946E028BEF8093E8009ECE823209F035
:100B20009BCE8F8980931501EEEFFFE7859194911D
:100B30008B3F9C4D51F1E0E0F8E080910E019091E7
:100B40000F01A0911001B0911101803B9440A105CB
:100B5000B105F1F48091150180FD1AC0EE3F8AE0E5
:100B6000F80789F587E797E7918380838091600094
:100B70008093420188E19BE00FB6F894A89580939A
:100B800060000FBE9093600067CEEEEFFAE0D5CF25
:100B9000808191818737974709F05ECEA895809133
:100BA00060008861809360008091420180936000C2
:100BB000EE3F2AE0F20789F08091FE0A9091FF0A49
:100BC0009183808349CE808191818737980751F244
:100BD0009093FF0A8093FE0AC5CF1092FF0A1092ED
:100BE000FE0A3ACE0E942101DC0112960D911C9161
:100BF0000115110509F4E8CED801ED91FC910190A1
:100C0000F081E02DBE016B5E7F4FC8010995811117
:100C100023CEF80100851185EBCF181619060CF4C8
:100C20001BCED2CEF1E0FF12BECE6CE471E004CF59
:100C30001F920F920FB60F9211242F933F938F9311
:100C40009F93AF93BF938091360190913701A0910C
:100C50003801B09139013091350123E0230F2D3750
:100C600058F50196A11DB11D2093350180933601E1
:100C700090933701A0933801B093390180913A01E4
:100C800090913B01A0913C01B0913D010196A11DC5
:100C9000B11D80933A0190933B01A0933C01B09326
:100CA0003D01BF91AF919F918F913F912F910F90F7
:100CB0000FBE0F901F90189526E8230F0296A11DD6
:100CC000B11DD2CF1F920F920FB60F9211242F9306
:100CD0003F934F935F936F937F938F939F93AF93C4
:100CE000BF93EF93FF93E0910801F09109010995FB
:100CF000FF91EF91BF91AF919F918F917F916F91F4
:100D00005F914F913F912F910F900FBE0F901F90C9
:100D100018951F920F920FB60F9211242F933F93A5
:100D20004F935F936F937F938F939F93AF93BF93F3
:100D3000EF93FF93E0910601F09107010995FF9170
:100D4000EF91BF91AF919F918F917F916F915F9143
:100D50004F913F912F910F900FBE0F901F901895BC
:100D60001F920F920FB60F9211242F933F934F9320
:100D70005F936F937F938F939F93AF93BF93EF9303
:100D8000FF93E0910401F09105010995FF91EF9126
:100D9000BF91AF919F918F917F916F915F914F9193
:100DA0003F912F910F900FBE0F901F9018951F929B
:100DB0000F920FB60F9211242F933F934F935F938F
:100DC0006F937F938F939F93AF93BF93EF93FF9313
:100DD000E0910201F09103010995FF91EF91BF911C
:100DE000AF919F918F917F916F915F914F913F91C3
:100DF0002F910F900FBE0F901F9018951F920F927A
:100E00000FB60F9211242F933F934F935F936F93DD
:100E10007F938F939F93AF93BF93EF93FF93E09153
:100E20000001F09101010995FF91EF91BF91AF9100
:100E30009F918F917F916F915F914F913F912F91F2
:100E40000F900FBE0F901F9018951F920F920FB624
:100E50000F9211242F938F939F9380913001909143
:100E600031018E3C9240B0F02E9A109231011092D6
:100E700030018091330190913401019690933401B7
:100E8000809333019F918F912F910F900FBE0F9000
:100E90001F9018958091300190913101049708F0CE
:100EA0002E988091300190913101019690933101FB
:100EB00080933001E7CFE6E4F1E01382128288EEFE
:100EC00093E0A0E0B0E084839583A683B78381E2BA
:100ED00091E0918380838FEF9FEF958784870895BA
:100EE000789484B5826084BD84B5816084BD85B505
:100EF000826085BD85B5816085BD80916E00816011
:100F000080936E00109281008091810082608093B6
:100F100081008091810081608093810080918000B8
:100F20008160809380008091910082608093910025
:100F30008091910081608093910080919000816008
:100F4000809390008091C10084608093C100809163
:100F5000C10082608093C1008091C1008160809354
:100F6000C1008091C30081608093C3008091C00064
:100F700082608093C0008091C20081608093C20033
:100F800080917A00846080937A0080917A008260F8
:100F900080937A0080917A00816080937A008091BA
:100FA0007A00806880937A001092A3011092430126
:100FB000109245018091D70081608093D70080EA2C
:100FC0008093D80089B5806189BD89B5826089BD6B
:100FD00009B400FEFDCF0E94D1028091D8008F7C21
:100FE00080618093D8008091E000807F8093E00052
:100FF0008091E1008E7E8093E1008DE08093E2009D
:10100000559A209A61E08AE00E947B0261E086E0C6
:101010000E947B0260E082E00E947B028AE693E00D
:10102000909303018093020180916900837F88601F
:1010300080936900E99A82E084BD91E095BD90E2D9
:1010400097BD80936E007894C0E0D0E006E713E08F
:10105000DD24D3943AE6E32E33E0F32E8BB190E017
:10106000880F892F881F990B892B69F08091330194
:1010700090913401892B21F5E99810930301009395
:101080000201D0923201809132018823A1F0809137
:10109000330190913401893E934068F0F09203014E
:1010A000E092020180916900837F886080936900EB
:1010B000E99A10923201209789F20E940000CECF67
:1010C000809133019091340184369105E0F25F986C
:1010D000DACFEE0FFF1F0590F491E02D0994F894FC
:0210E000FFCF40
:1010E20076037603760376037603FFFFFFFF00E1C4
:1010F20000000000000000C180810000000000002C
:10110200003501E90256014B019C015A01780100A8
:00000001FF
